:020000040800F2
:10000000C00400209D010008A5010008A701000808
:10001000A9010008AB010008AD01000800000000C4
:10002000000000000000000000000000AF01000818
:10003000B101000800000000B3010008C516000867
:10004000B7010008B7010008B7010008B7010008B0
:10005000B7010008B7010008B7010008B7010008A0
:10006000B7010008B7010008B7010008B701000890
:10007000B7010008B7010008B7010008B701000880
:10008000B7010008B7010008B7010008B701000870
:10009000B7010008B7010008B7010008B701000860
:1000A000B7010008B7010008B7010008B701000850
:1000B000B7010008B7010008B7010008B701000840
:1000C000B7010008B7010008B7010008B701000830
:1000D000B7010008D51A0008B7010008B7010008E9
:1000E00087020008B7010008B7010008B70100083F
:1000F000B7010008B7010008B7010008B701000800
:10010000B7010008B7010008B7010008B7010008EF
:10011000B7010008B7010008B7010008B7010008DF
:10012000B7010008B7010008B7010008B7010008CF
:10013000B7010008B7010008B7010008B7010008BF
:10014000B7010008B7010008B7010008B7010008AF
:10015000B7010008B7010008B7010008B70100089F
:10016000B7010008B7010008B7010008B70100088F
:10017000B7010008B7010008B7010008000000003F
:10018000B7010008B7010008DFF80CD000F04AF80A
:1001900000480047011E0008C004002006488047B0
:1001A00006480047FEE7FEE7FEE7FEE7FEE7FEE75C
:1001B000FEE7FEE7FEE7FEE7691700088901000891
:1001C0002DE9F05F0546002092469B46884606468C
:1001D000814640241BE0284641464746224600F01F
:1001E00042F853465A46C01A914110D31146184658
:1001F000224600F029F82D1A67EB01084F462246E7
:100200000120002100F020F817EB00094E41201ECC
:10021000A4F10104DFDC484631462A464346BDE8E6
:10022000F09F0000064C074D06E0E06840F0010337
:1002300094E8070098471034AC42F6D3FFF7A8FFC4
:1002400088210008A8210008202A04DB203A00FAAF
:1002500002F1002070479140C2F1200320FA03F31D
:10026000194390407047202A04DB203A21FA02F01B
:100270000021704721FA02F3D040C2F120029140E0
:100280000843194670474FF4005000F011B831B5DB
:1002900000F0FAF8044600F0F7F80099001B8842D5
:1002A000F9D338BD014901200870704708000020CB
:1002B000044910B50A68024202D00860FFF7F2FF55
:1002C00010BD0000143C01402DE9F84FDFF888B163
:1002D00000224FF001084FF0030A4FF00F090BF115
:1002E000040E00BF0B6808FA02F42340A3426ED14B
:1002F0004D68022D01D0122D0ED1D50800EB850CD2
:10030000DCF820505607F70E09FA07F6B5430E69D8
:10031000BE402E43CCF82060066855000F790AFADB
:1003200005FC07F0030726EA0C06AF4037430760D9
:100330004E68012E05D0022E03D0112E01D0122EB0
:100340000ED18668CF6826EA0C06AF403743876037
:100350004668A6430C79C4F30014944034434460C7
:10036000C4688E6824EA0C04AE402643C6604C681C
:10037000E4006AD5394C256845F480452560246839
:1003800022F0030504F480440094354C2E19D6F86D
:10039000084895072F0F09FA07F5AC43314DA842DD
:1003A00001D1002529E0304DA84201D1012524E0EA
:1003B0002E4DA84201D102251FE02D4DA84201D1AA
:1003C00003251AE02B4DA84202D1042515E03CE09C
:1003D000294DA84201D105250FE0284DA84201D1A1
:1003E00006250AE0264DA84201D1072505E0254D46
:1003F000A84201D1082500E00925BD402543C6F8E3
:100400000858DBF800405D464E689C43F60300D573
:100410001C432C60DEF8004075464E689C43B603D2
:1004200000D51C432C600C4D08352C684E689C434D
:10043000F60200D51C432C60074D0C352C684E6825
:100440009C43B60200D51C432C60521C102AFFF4BA
:1004500049AFBDE8F88F0000003C0140443802403D
:100460000030014000000240000402400008024049
:10047000000C02400010024000140240001802402C
:10048000001C024000200240014800687047000044
:100490000400002070B5040004D094F83500002555
:1004A00010B106E0012070BD84F83450204600F001
:1004B000C9F9022084F835002068016821F00101A3
:1004C000016000F081FB31492268B0FBF1F151601D
:1004D0002F4A6368934206D94FF4967359434FF4F9
:1004E0007A73B1FBF3F12368491C19626168914288
:1004F0000BD84900B0FBF1F2C2F30B02042A01D27F
:10050000042019E0B0FBF1F016E0A36883B301EB1F
:10051000C10202EB0112B0FBF2F242F4804212057A
:100520002CD06BB301EBC10202EB0111B0FBF1F077
:1005300040F4804040F400402168C861D4E90701DC
:10054000084321680860D4E90310084321688860E3
:10055000D4E9050108432168C8602068016841F0BA
:1005600001010160A563012084F83500002070BD01
:10057000FFE701EB4102B0FBF2F2D0E70120DBE73D
:1005800001EB4101B0FBF1F0D4E7000040420F0065
:10059000A08601002DE9FF4F81B004460EA89946C0
:1005A00090E8600894F835009246012877D155B15B
:1005B0004EB142F2107301226549204600F032FF2D
:1005C0000028F3D103E0012005B0BDE8F08F94F8D6
:1005D0003400012863D04FF0010884F8348020688B
:1005E000016821F400610160422084F83500002791
:1005F000A7634B465246CDF800B02046029900F062
:1006000059FE28B1A06B84F834700428DBD081E057
:10061000DFF840A1012E18D0DFF838912068A9F149
:100620003C09022E26D0416980690090032E6AD8C9
:10063000012E17D0022E2AD05B46002249462046C2
:1006400000F0F0FE002865D13AE02068016821F44E
:10065000806101602068416981690091016841F40D
:10066000007101605B4600225146204600F0DAFE30
:10067000F0BB15E0016821F4806101602068016829
:1006800041F40061016020684169806900905B4627
:1006900000224946204600F0C5FE48BB04E054E075
:1006A0002068006928704AE02068016841F4007100
:1006B00001602068006928702068006968703EE069
:1006C0002068016821F4806101602068006905F8F4
:1006D000010B761EB6B25B4600224946204600F06A
:1006E000A1FE28B92068016841F40071016000E0B2
:1006F00010E02068006905F8010B2068006905F822
:10070000010BB61E17E05B4600225146204600F062
:1007100089FE08B1032057E72068006905F8010B3E
:100720002068761EB6B24169C943490704D40069FE
:1007300005F8010B761EB6B2002E7FF477AF84F871
:10074000358084F8347000203EE702203CE700004A
:1007500002001000400001002DE9FF4F81B0044667
:10076000DDE90E6590F83500DDF840909A46934635
:10077000012861D14EB145B142F2107301222F49D7
:10078000204600F04FFEE8BB03E0012005B0BDE8C5
:10079000F08F94F8340001284ED04FF0010884F80F
:1007A00034802068016821F400610160322084F8FF
:1007B00035000027A76353465A46CDF800902046DF
:1007C000029900F0E7FD28B1A06B84F8347004288A
:1007D000DBD024E0DFF868A04B46002251462046DB
:1007E00000F020FED8B9216816F8010B08612068D6
:1007F0006D1EADB24169C943490707D445B116F82A
:10080000011B00E018E001616D1EADB2002DE3D1C7
:100810004B4600225146204600F004FE08B103205A
:10082000B4E72068016841F40071016084F8358004
:1008300084F834700020A9E70220A7E70200100026
:100840008000010000B500680E4987B0884216D1CB
:10085000C0200090122001900120029003200390FC
:100860000420049069460848FFF72EFD07480168F8
:1008700041F400110160006800F40010059007B019
:1008800000BD000000540040000402404038024017
:1008900002480168491C0160704700000400002004
:1008A0000B4810B5016841F400710160016841F422
:1008B00080610160016841F480710160032000F0F3
:1008C00051F8002000F006F800F015F8002010BDE7
:1008D000003C024010B5044600F05CF94FF47A7118
:1008E000B0FBF1F000F081FB00222146501E00F029
:1008F00019F8002010BD10B5032000F033F80022D5
:10090000BDE810401146501E00F00CB800F01F0268
:10091000012191404009800000F1E020C0F8001161
:1009200070470000F0B40E4B1B680C46C3F3022363
:10093000C3F10705042D00D90425191D072901D28B
:10094000002300E0DB1E012606FA05F1491E2140C6
:1009500099409E40761E16403143F0BC00F0A2BE86
:100960000CED00E0064900F0070208684FF6FF03AF
:10097000184040EA0220034A104308607047000014
:100980000CED00E00000FA052DE9F05FDFF8FCA1B6
:1009900004460F46DAF80000DFF8F48100F00F019A
:1009A0007B4807F0FF0941F2883508F10808B94291
:1009B00062D28AF80090DAF8001001F00F01B94213
:1009C0007ED12178890707D5D8F80020A36822F0C6
:1009D000F0021A43C8F800202178C9072ED06168B8
:1009E00001291AD002291BD0032919D000688007D9
:1009F000002865DAD8F80000464620F003000843D6
:100A0000C8F80000FFF740FD07466068012810D0D5
:100A100002281AD003281ED029E000688003E7E7E7
:100A200000688001E4E700BFFFF72EFDC01BA8426D
:100A300059D83068C0F381000128F5D189E000BFA2
:100A4000FFF722FDC01BA8424DD83068C0F38100DB
:100A50000228F5D17DE03068FFF716FDC01BA842E3
:100A6000F9D940E0FFF710FDC01BA8423BD8306821
:100A700010F00C0FF6D16CE02178890707D5D8F873
:100A80000020A36822F0F0021A43C8F80020217861
:100A9000C9074CD06168012928D0022929D003292F
:100AA00027D000688007002849DAD8F8002022F013
:100AB00003020A43C8F80020FFF7E6FC064600E000
:100AC0003DE0606801281DD0022829D0032838D0D5
:100AD000AB464546286810F00C0F28D0FFF7D4FC31
:100AE000811B5945F6D90320BDE8F09F00688003BB
:100AF000D9E700688001D6E7FFF7C6FC811B59459E
:100B000002D9F0E7AB4645462868C0F381000128CA
:100B1000F2D10CE0FFF7B8FC811B594502D9E2E79E
:100B2000AB4645462868C0F381000228F2D18AF816
:100B30000090DAF8000000F00F00B84209D0012060
:100B4000D2E744462068FFF79FFC801BA842F9D9F2
:100B5000C9E72078400707D5D8F80010E26821F4EB
:100B6000E0511143C8F800102078000708D5D8F8E4
:100B70000010226921F4604141EAC201C8F8001066
:100B80000020FFF7A7FE0020AEE70000003C024077
:100B90000038024010B500F043F808490968F02217
:100BA00092FAA2F201F0F001B2FA82F2D140044AC4
:100BB000515CC8400349086010BD0000083802407D
:100BC000762100080000002010B5FFF7E3FF074979
:100BD00009684FF4E05292FAA2F201F4E051B2FA3D
:100BE00082F2D140024A515CC84010BD0838024030
:100BF0007621000810B5FFF7CDFF074909684FF4CB
:100C0000604292FAA2F201F46041B2FA82F2D1405B
:100C1000024A515CC84010BD0838024076210008E5
:100C200030B51948006810F00C01184812D0184C63
:100C300004290ED008290DD11349091F0A6802F0B2
:100C40003F030A68550247F6C07204D5B4FBF3F0BF
:100C500003E0204630BDB0FBF3F00B680968134099
:100C600092FAA2F2B2FA82F2D34058434FF44032E1
:100C700092FAA2F201F44031B2FA82F2D140491C58
:100C80004900B0FBF1F030BD083802400024F40008
:100C900040787D012DE9F84F04460078DFF81CA369
:100CA000C74DC0074FF000064BD0DAF80010504691
:100CB000C1F38101012908D00068C0F38100022836
:100CC0000AD1281D0068400206D52868800338D55F
:100CD0006068002871D034E0DFF8E49209F102097D
:100CE00089F80060FFF7D0FB804641F2883705E0C5
:100CF000FFF7CAFBA0EB0800B8427DD82868800344
:100D0000F6D4207989F80000606868B1FFF7BCFB71
:100D1000804605E0FFF7B8FBA0EB0800B842ECD82E
:100D200028688003F6D50CE0FFF7AEFB804605E0AF
:100D3000FFF7AAFBA0EB0800B842DED828688003C2
:100D4000F6D420789F4F80074FF0010B45D5DAF895
:100D50000010504611F00C0F4FF0F80909D0006850
:100D6000C0F3810002280BD19448001F00684002A4
:100D700006D42868800714D5E06801281DD110E04A
:100D8000E068D8B1C7F800B0FFF77EFB804605E009
:100D9000FFF77AFBA0EB08006428AED8286880072C
:100DA000F6D5286899FAA9F22169B2FA82F220F000
:100DB000F8009140084328600FE0FCE03E60FFF738
:100DC00063FB804606E000BFFFF75EFBA0EB080078
:100DD000642811D828688007F6D42078000729D520
:100DE000DFF8D8917848616909F16C0999B1C0F8C8
:100DF00000B0FFF749FB00E086E0804606E000BF58
:100E0000FFF742FBA0EB080064287DD8D9F800006A
:100E10008007F5D50EE00660FFF736FB804605E05B
:100E2000FFF732FBA0EB080064286DD8D9F800006A
:100E30008007F5D4207840075AD5604838300168DB
:100E400041F0805101600068DFF8809100F080502F
:100E50000090D9F8001041F48071C9F80010FFF734
:100E600013FB804606E000BFFFF70EFBA0EB080077
:100E7000642849D8D9F80000C005F5D5DFF83C81D1
:100E800008F1680888F80060FFF7FEFA41F2883937
:100E9000009005E0FFF7F8FA0099411A494533D868
:100EA000D8F800008007F5D4207A88F80000A06800
:100EB00078B1FFF7E9FA009006E000BFFFF7E4FA27
:100EC0000099411A49456ED8D8F800008007F5D539
:100ED0000EE0FFF7D9FA009006E000BFFFF7D4FA62
:100EE0000099411A49455ED8D8F800008007F5D42A
:100EF000A069E8B3DAF80010C1F3810102295AD0E1
:100F000002283E6605D000E04DE0FFF7BDFA04463A
:100F10004CE0FFF7B9FA064605E000BFFFF7B4FA68
:100F2000801B64283FD828688001F7D4D4E90701E2
:100F3000084347F6C07292FAA2F2616AB2FA82F2EC
:100F40009140A26A4FF0FF3303EB52024FF440335B
:100F500093FAA3F3B3FA83F39A40114308434FF093
:100F6000706292FAA2F2E16AB2FA82F2914000E073
:100F70001FE008431149091F0860C7F860B0FFF778
:100F800083FA044605E000BFFFF77EFA001B6428E1
:100F900009D828688001F7D50BE000BFFFF774FA85
:100FA000001B642802D90320BDE8F88F286880015F
:100FB000F4D40020F8E70120F6E7000008380240EA
:100FC0000038024000004742800E47420070004057
:100FD0004FF0E0210428086903D020F004000861E4
:100FE000704740F00400FAE7704710B5401EB0F1BA
:100FF000807F01D3012010BD4FF0E02460610F21FC
:10100000601700F04FFB0020A06107202061002046
:1010100010BD10B5FFF7E8FF10BD704738B5016887
:101020000446086810F0010FC86800F4807007D00B
:1010300030B1086848680090E06B40F00100E06360
:1010400008684A69C0F3400002F0010238B132B1C9
:10105000086848680090E06B40F00400E0630868AE
:10106000C0F38002486900F001003AB130B108686D
:1010700048680090E06B40F00200E0630868C0F34D
:10108000C002486900F001003AB130B10868486810
:101090000090E06B40F00800E0630868C968C0F3A6
:1010A000401001F0200118B111B1204600F086FB7C
:1010B00021680868C968C0F3C01001F0800118B148
:1010C00011B1204600F08AFC21680868CA68C0F3A4
:1010D000801002F040020125C0B1BAB1CA682046B2
:1010E00022F04002CA6094F83910322917D0016802
:1010F000CA6822F48072CA6001684A6922F001025B
:101100004A6180F8395000BF00F0D2F8E06B002847
:1011100004D084F839502046FFF77FFF38BD2221E4
:1011200080F83910F0E770B5040004D094F8390065
:10113000002510B106E0012070BD84F8385020462B
:1011400000F020F8022084F839002068C16821F4FA
:101150000051C160204600F085FB2068016921F440
:10116000904101612068416921F02A0141612068B4
:10117000C16841F40051C160E563012084F8390081
:10118000002070BD00B50068124987B088421FD1A9
:101190001148016841F0100101600068694600F0E3
:1011A000100005904FF4C0600090022001900120D3
:1011B000029003200390072004900848FFF784F86A
:1011C000002211462520FFF7ADFB2520FFF79EFBEF
:1011D00007B000BD0010014044380240000002404A
:1011E000704700002DE9F047044690F83900994611
:1011F0000D46012801D0222858D12DB322B394F8EE
:101200003800012852D0012684F838600027E763AF
:1012100094F8390022281AD05FF0120084F83900BF
:10122000A284E2844FF48058E08C4B46401EE08458
:10123000A0684FF0000240454FF08001204613D1D6
:1012400000F0FFFB08BB04E00120BDE8F08732207E
:10125000E4E728882168C0F308004860206908B1E5
:101260006D1C08E0AD1C06E000F0EBFB68B92168DE
:1012700015F8010B4860E08C0028D5D14B460022C0
:101280004021204600F0DDFB08B10320DDE794F8A3
:101290003900322806D084F8396000BF84F83870ED
:1012A0000020D2E7222084F83900F7E70220CCE7BB
:1012B000704700002DE9F84F044600680F46984635
:1012C0000168164641F4806101602068016841F4BC
:1012D000807101604FF001190022494620460A9BA7
:1012E00000F0A0F8E8BB216807F0FE00086109F1F2
:1012F000010A514620460A9A00F0DAF818B1A06BAC
:10130000042842D031E02068416980690090DFF80C
:1013100080B00022594620460A9B00F083F800BBAB
:10132000F5B2B8F1010F09D02168300A0861002236
:10133000594620460A9B00F075F890B9206805616F
:101340000022594620460A9B00F06CF848B92068F4
:10135000016841F4807101600022494620460A9BE1
:1013600000E002E000F05EF810B10320BDE8F88F65
:101370002168F8B240F001000861514620460A9AFF
:1013800000F096F80028BAD1F0E70120EEE700005F
:10139000800001002DE9F843044600680D46DDF8A1
:1013A000209001689846164641F4807101604B46D2
:1013B00000224FF00111204600F034F850BB2168A4
:1013C00005F0FE0008614A461549204600F070F815
:1013D00028B1A06B04281DD10120BDE8F883206846
:1013E000416980690E4F00907E374B460022394696
:1013F000204600F017F868B9F5B2B8F1010F0BD02C
:101400002168300A08614B4600223946204600F028
:1014100009F808B10320E0E7206805610020DCE757
:10142000020001002DE9F05F1E4690460C4605467D
:10143000FFF72AF881464FF0000A4FF0010BC4F382
:101440000747B8F1000F09D024E0701C06D0D6B1D0
:10145000FFF71AF8A0EB0900B04214D82868012F52
:1014600006D0806924EA00000004000C1BD0ECE7E1
:101470004069F7E7701C0DD02EB1FFF705F8A0EB1F
:101480000900B04206D985F835B085F834A00320AC
:10149000BDE8F09F2868012F07D0806924EA00008A
:1014A0000004000CE6D00020F2E74069F6E70000F7
:1014B0002DE9F04791460D460446FEF7E5FF8246CA
:1014C00000274FF00108C5F3074628E0206840696F
:1014D000C043400511D42068016841F400710160E7
:1014E00021686FF4806048610420A06384F835802F
:1014F00084F834700120BDE8F087B9F1FF3F0ED0C9
:10150000B9F1000F05D0FEF7BFFFA0EB0A01494576
:1015100005D984F8358084F834700320EBE720681F
:10152000012E07D0D0F8180025EA00000004000CB6
:10153000E1D0CBE74069F7E72DE9FE43094E0A9D6C
:101540001C4617468846814630680094CDE9015014
:1015500001233A4641464846FFF71CF80028F3D1DC
:10156000BDE8FE83280000202DE9F0411D46174606
:101570000E468046069C0BE03A46781CC7B215F82A
:10158000013B3146404600F009F80520FEF77FFE9A
:10159000641EE4B2F0D2BDE8F08100002DE9FF4303
:1015A00083B00A4C174688468146012506AE20685E
:1015B0000096CDE9015001233A4641464846FFF7DF
:1015C000CBF80028F3D107B0BDE8F0832800002055
:1015D0001B4800B5016887B041F0800101600168D7
:1015E00001F080010591016841F008010160016886
:1015F00001F008010591016841F0010101600168F5
:1016000001F001010591016841F0020101600068EB
:10161000694600F0020005904FF400500090094820
:101620000190002002900848FEF74EFE002211466D
:101630002820FFF777F92820FFF768F907B000BDE9
:101640003038024000002110000C024009480849CF
:101650004FF4804201600849416000218160C0E987
:10166000031240224161C0E906120162FEF712BF77
:101670000054004044000020A086010008480749AB
:1016800001604FF4E1314160002181600C22C160B2
:10169000C0E904128161C161FFF745BD001001403E
:1016A000800000200907090E002806DA00F00F006C
:1016B00000F1E02080F8141D704700F1E02080F870
:1016C0000014704710B5FFF7E3F8BDE81040FFF7CE
:1016D000A0BC0000224810B5016892B041F08051D2
:1016E0000160006800F0805011901E48016841F4CC
:1016F000804101600068022400F4804011900120C4
:10170000009001908005CDE90640192008904FF423
:10171000A870CDE9090404200B906846FFF7BAFAD7
:101720000D20CDE90C0400200E904FF4A0500F9036
:10173000E002109005210CA8FFF726F9FFF72AFA1E
:101740004FF47A71B0FBF1F0FFF74FFC0420FFF784
:101750003FFC00221146501EFFF7E4F812B010BD06
:1017600040380240007000401048016841F47001A8
:1017700001600F48016841F0010101600C4A00213D
:101780000832116002680B4B1A400260031D0A4ABE
:101790001A60026822F48022026005480C30016061
:1017A00002495806803908607047000088ED00E063
:1017B00000380240FFFFF6FE1030002410B590F80C
:1017C0003910222903D0322901D0022010BD8168AE
:1017D000B1F5805F11D00169002901681FD0496807
:1017E00001F07F03816A4A1C82620B70C18D491E21
:1017F0000904090CC18518D030E00269816A002A09
:101800000268526805D0D2B20A80816A491C81629E
:10181000ECE7C2F308020A80816A891CF7E74A688C
:10182000816A4B1C83620A70E0E70168CA6822F093
:101830002002CA6090F83910322911D00168CA68B4
:1018400022F48072CA6001684A6922F001024A618A
:101850005FF0010180F83910FFF7C2FC002010BDD5
:101860001221F7E72DE9F04101680446086920F4E8
:101870004052E068104308612268D06849F20C6168
:1018800088432369A168E569194363692B431943B8
:101890000143D1602168486920F44072A069104377
:1018A0004861E26964263225B2F5004F49494A4849
:1018B00022681DD0824201D08A426AD1FFF79AF98C
:1018C00000EBC00101EB00106168B0468900B0FB7D
:1018D000F1F1B1FBF8F6FFF78DF900EBC00101EB78
:1018E000001061688900B0FBF1F7FFF783F969E048
:1018F000824201D08A4219D1FFF77CF900EBC00186
:1019000001EB00106168B0464900B0FBF1F1B1FB9A
:10191000F8F6FFF76FF900EBC00101EB001061680A
:101920004900B0FBF1F7FFF765F918E0FFF74CF954
:1019300000EBC00101EB00106168B0464900B0FB4C
:10194000F1F1B1FBF8F6FFF73FF900EBC00101EB55
:10195000001061684900B0FBF1F7FFF735F900EBC3
:10196000C00101EB001061685FEA4101B0FBF1F1D9
:10197000B1FBF8F06FF01801484307EB800005EB6E
:101980000011B1FBF8F0216866F31F108860BDE814
:10199000F081FFF719F900EBC00101EB001061685D
:1019A000B0468900B0FBF1F1B1FBF8F6FFF70CF996
:1019B00000EBC00101EB001061688900B0FBF1F79A
:1019C000FFF702F900EBC00101EB0010616889002C
:1019D000CCE70000001401400010014090F83910DD
:1019E000122903D0322901D0022070478168B1F555
:1019F000805F016A0BD04A1C02620268097851605C
:101A0000C18C491E0904090CC1840ED017E0098855
:101A10000268C1F30801516001690029016A02D01E
:101A2000491C0162ECE7891CFBE70168CA6822F0E7
:101A30008002CA600068C16841F04001C1600020B6
:101A400070472DE9F0471D4690460E460446FEF7C6
:101A50001BFD07465FEA08004FF000094FF0010840
:101A600008D030E0681C05D095B1FEF70DFDC01B15
:101A7000A8420DD82068006836EA0000F2D127E0BD
:101A8000681C20D025B1FEF7FFFCC01BA8421AD964
:101A90002068C16821F08001C1602068C16821F020
:101AA0002001C1602068C16821F48071C160206894
:101AB000416921F00101416184F8398084F838904E
:101AC0000320BDE8F0872068006836EA0000D7D020
:101AD0000020F6E70148FFF7A1BA000080000020CF
:101AE0000FB4054B10B503A9044A029800F018F88A
:101AF00010BC5DF814FB0000E11D00082C00002064
:101B000002E008C8121F08C1002AFAD170477047C6
:101B1000002001E001C1121F002AFBD17047000024
:101B20002DE9FF4F8DB09B460F460446002606E088
:101B300025280BD05A460F999047641C761C2078B4
:101B40000028F5D111B03046BDE8F08F0025A84639
:101B50000122984900E0054314F8013F203B02FAB6
:101B600003F00842F7D120782E2817D114F8010F7E
:101B700045F004052A280ED06FF02F022078A0F13E
:101B8000300109290AD808EB880102EB410100EB7A
:101B90000108641CF2E757F8048B641C20786C2859
:101BA0000DD004DC4C2812D06A2811D104E074282E
:101BB0000DD07A280CD10AE045F4001507E06178D1
:101BC00045F48015814202D1641C05F58015641C22
:101BD0002278692A45D008DC002AB3D0582A69D077
:101BE000632A10D0642A08D13BE0702A67D0732A98
:101BF00013D0752A5CD0782A5CD010465A460F99CB
:101C00009047761CD3E017F8040B8DF800000020F5
:101C10008DF80100E946012003E057F8049B4FF0DE
:101C2000FF3069074FF0000501D40AE06D1C4545FF
:101C30000DDA8542FADB19F805100029F6D106E025
:101C40006D1C8542FCDB19F805100029F8D12E44E3
:101C500004E019F8010B5A460F9990476D1EF8D20F
:101C6000A5E00A200021CDE90801C5F302500228B1
:101C70000DD001CFC117031E71F100030DDA4FF033
:101C8000000CD0EB0C006CEB01012D2308E0FF1DD4
:101C900027F00707F7E80201EDE72B0504D52B2312
:101CA0008DF8283001233BE0EB0739D02023F7E7FC
:101CB0000A2000E010200021CDE9080107E01020F3
:101CC000002145F00405CDE908014FF00808C5F3EF
:101CD000025002280FD001CF00214FF0000A2B073D
:101CE0001FD5702A0DD0DDE908C38CF0100C5CEA1A
:101CF000030C0CD015E0FF1D27F00707F7E80201E1
:101D0000EBE740228DF828204FF0010A0BE050EA63
:101D1000010306D030238DF828308DF829200223C6
:101D20009A46582A04D024A20DF120090B9209E00A
:101D300026A2F9E7DDE90823FEF742FA0B9B9B5C3C
:101D400009F8013D50EA0102F4D1ADEB0900203061
:101D50000890680701D44FF001080899884502DD12
:101D6000A8EB010000E000208046002506E00AA85C
:101D70005A46405D0F9990476D1C761C5545F6DB21
:101D800004E030205A460F999047761CB8F10001C4
:101D9000A8F10108F5DC05E019F8010B5A460F9986
:101DA0009047761C0899481E08900029F4DC641CB2
:101DB000C5E60000092801003031323334353637AA
:101DC0003839616263646566000000003031323387
:101DD0003435363738394142434445460000000027
:101DE00038B50446002000908DF800400A230122F7
:101DF00069460248FFF7F6F9204638BD800000200A
:101E000008B5FEF74DFDFFF765FCFFF7E1FBFFF7B7
:101E10001DFCFFF733FC1AA0FFF762FE19A0FFF7C5
:101E20005FFE26A0FFF75CFE0024294D2646012711
:101E300005F101084FF00809287801281DD1244B2D
:101E40002E705B1C0122712122480097FFF774FB62
:101E500098F8001020A0FFF743FE00F095F8204608
:101E600000F084F91A4B10220D3371211948CDF876
:101E70000090FFF761FB00F039F8E043C4B2DBE704
:101E80000A0D00000A0D2D2D2D2D2D2D2D2D2D2D62
:101E90002D2D2D2D2D2D2D2D2D2D2D2D2D2D2D2D72
:101EA0002D2D2D2D2D2D2D2D2D2D2D2D2D2D2D2D62
:101EB0002D2D2D2D2D2D2D0D0A0000000A0D20BFDA
:101EC000DAC1EEC6A5C5E4B3CCD0F2200D0A0000FD
:101ED00008000020440000200A0DB0B4BCFCBCFC8B
:101EE000D6B5203D202523780D0A000038B52448BA
:101EF000082100F1150283780D30012400780F2BA2
:101F00001BD2DFE803F03B081B21232527292B2DBB
:101F10002F31333537000C2311E0194B00910D336D
:101F2000112270211748FFF71FFB0BE0144B102202
:101F3000153370211348FFF717FB38BDDA231370F0
:101F40000028EAD10094F1E7F223F8E76623F6E7E8
:101F5000B623F4E7BE23F2E7E023F0E7FE23EEE743
:101F6000E623ECE7EE23EAE73E23E8E79C23E6E7F7
:101F70007A23E4E7002010700091D7E7FC23DEE726
:101F800008000020440000201A480178401E1D2946
:101F90002ED2DFE801F02D292B212D2D2D2D2D27DF
:101FA0001F1D1B2D2D2D2D251917152D2D2D2D23E5
:101FB00013110F0001211AE0022118E0032116E09D
:101FC000042114E0052112E0062110E007210EE0B3
:101FD00008210CE009210AE0002108E00A2106E0BE
:101FE0000B2104E00C2102E00D2100E00E218170A4
:101FF00070470000090000201CB51748174C0178F5
:10200000401E022907D04168052901DC827862540C
:10201000491C41601CBD0021416011A0FFF760FD1B
:102020002179E078CDE90001A3786278217811A0C8
:10203000FFF756FD08490020C91D225C0B5C521CAD
:102040009A4204D012A0BDE81C40FFF749BD401CD5
:102050000528F2DB14A0F6E709000020300000207C
:102060000A0D20626567696E206D61746368200DDA
:102070000A0000000A0D202523782025237820253A
:1020800023782025237820252378200D0A000000BE
:102090000A0D20707764206D617463682065727228
:1020A0006F72200D0A0000000A0D20707764206D09
:1020B000617463682073756363657373200D0A0030
:1020C00070B5164D0024164EA9780E2906D0686802
:1020D000052802DC3154401C686070BD11A0FFF778
:1020E000FFFC6868052801D013A013E00020686099
:1020F0000A4D0835315D16A0FFF7F2FC305D401C3B
:10210000C0B23055295D8842EED1641CE4B2052C82
:10211000F0D310A0BDE87040FFF7E2BC080000203B
:10212000300000200A0D20626567696E206D6174C1
:102130006368200D0A0000000A0D20707764206D8E
:1021400061746368206661696C6564200D0A000033
:10215000257820000A0D20707764206D6174636813
:102160002073756363657373200D0A0008B1FFF770
:10217000A7BFFFF741BF00000000010203040102F6
:102180000304060708090000A82100080000002039
:1021900030000000001B0008D8210008300000209B
:1021A00090040000101B00080024F4000000000050
:1021B000000000000000000004010302090000000C
:1021C000000000000000000000000000000000000F
:0821D000FFFF00000000000009
:040000050800018965
:00000001FF
